:020000040800F2
:1000000038090020D5140008810400088304000882
:10001000870400088B0400088F040008000000001B
:100020000000000000000000000000009304000831
:1000300095040008000000009704000899040008D7
:10004000EF140008EF140008EF140008EF14000884
:10005000EF140008EF140008EF140008EF14000874
:10006000EF140008EF140008EF140008EF14000864
:10007000EF140008EF140008EF140008EF14000854
:10008000EF140008EF140008EF140008EF14000844
:100090009D040008EF140008EF140008EF14000896
:1000A000EF140008EF140008EF140008EF14000824
:1000B000EF14000827120008EF140008EF140008DE
:1000C000EF140008EF140008EF140008EF14000804
:1000D000EF1400084B140008EF140008EF14000898
:1000E000EF140008EF140008A504000800F002F85F
:1000F00000F05FF80AA090E8000C82448344AAF163
:100100000107DA4501D100F054F8AFF2090EBAE860
:100110000F0013F0010F18BFFB1A43F0010318473B
:10012000F89A0000189B00000A444FF0000C10F8E9
:10013000013B13F0070408BF10F8014B1D1108BF65
:1001400010F8015B641E05D010F8016B641E01F805
:10015000016BF9D113F0080F1EBF10F8014BAD1C55
:100160000C1B09D16D1E58BF01F801CBFAD505E073
:1001700014F8016B01F8016B6D1EF9D59142D6D3CD
:10018000704700000023002400250026103A28BFF5
:1001900078C1FBD8520728BF30C148BF0B607047F9
:1001A000642907F02385002070471FB51FBD10B5D7
:1001B00010BD07F0D6FE1146FFF7F7FF00F03AF842
:1001C00007F0F4FE03B4FFF7F2FF03BC01F0E2F81E
:1001D00002468A4201D9501A7047881AFCE710B5C6
:1001E00004460121042001F01FFD3CB18348006852
:1001F00080B220F002008149086011E07F48006869
:1002000080B240F002007D4908607D48006820F41B
:100210007F207B4908600846006840F44C30086045
:1002200010BD01B502E00098401E00900098002823
:10023000F9D108BD1CB500260027B04601F03AF8F8
:1002400001F0A2F84FF4165001F0B3F86DA007F0DA
:100250008DFC00F05BFA6DA007F088FC07F059F9FF
:100260004FF4FA70FFF7DDFF07F010F969A007F00F
:100270007DFC41F61F41C82000F0A8FF00F0FCFF04
:1002800066A007F073FC00F003FA66A007F06EFCAE
:1002900066A007F06BFC00F011FE66A007F066FC9C
:1002A00002E0C82001F043F800F097FE0028F8D1E2
:1002B00000F050FF61A007F059FC9DE0002708E026
:1002C000032F00D103E000205F49C85500BF781C10
:1002D000C7B2062FF4DB684600F00FFD002000F0E7
:1002E000A7FA8146B9F1010F07D1761C042E00D17F
:1002F000761F314655A007F039FC002000F062FA65
:100300000546012D05D1B8F1000F02D14E49087103
:1003100018E0022D0BD102204B4908716FEA08004A
:1003200000F0FF0841464CA007F020FC0AE0012D38
:1003300008D1B8F1FF0F05D103204349087147A048
:1003400007F014FC0121084600F0FEF90446444978
:100350004448007800F096FFFCB1214642A007F027
:1003600005FC012C0BD10120374908703C488179EC
:10037000C079814219D001204049087015E0022C53
:1003800013D102203049087035488179C079814203
:100390000BD001203949087007E031488179C079D4
:1003A000814202D00120354908703448007888B96C
:1003B000BDF9040040420F2190FBF1F0401E22499C
:1003C0004870BDF900000F2190FBF1F0001D1E499F
:1003D000887003E000201C49487088701A4800F0BB
:1003E00047FE00201849C87006EB8601142202EB74
:1003F000410188B200F09BFF60E70000405C0040D4
:1004000004080140616161310D0A000061616132DF
:100410000D0A0000616161330D0A00006161613401
:100420000D0A0000616161350D0A000061616136ED
:100430000D0A0000616161370D0A0000616161779A
:1004400068696C650D0A000009000020646970206D
:1004500069732025640D0A00256400003100000046
:10046000380000200E00002020544845204B4559FC
:100470002049532025640D0A0000000034000020AC
:10048000704700BFFEE700BFFEE700BFFEE700BF0A
:10049000FEE77047704770477047704710B504F02B
:1004A0005DFB10BD10B54FF4802001F0AAFE10BD19
:1004B0000CB50020019000906C48006840F480303A
:1004C0006A49086000BF6948006800F40030009085
:1004D0000198401C0190009818B90198B0F5A06FE0
:1004E000F1D16248006800F4003010B101200090A2
:1004F00001E0002000900098012843D15C4800688A
:1005000040F010005A4908600846006820F00300D7
:1005100008600846006840F00200086053484068E0
:10052000524948600846406848600846406840F4C0
:10053000806048600846406820F47C1048600846A7
:10054000406840F4E81048600846006840F0807059
:10055000086000BF4548006800F000700028F9D02E
:100560004248406820F0030040494860084640681F
:1005700040F00200486000BF3C48406800F00C00BA
:100580000828F9D10CBD10B5FFF792FF10BD10B5CA
:100590003648006840F00100344908600846406869
:1005A00034490840314948600846006832490840EB
:1005B0002E4908600846006820F48020086008463C
:1005C000406820F4FE0048604FF41F008860FFF789
:1005D000DAFF4FF000602949086010BD10B5002116
:1005E00000200022214B5B6803F00C0121B104299B
:1005F00006D0082928D107E0214B224C236027E0B0
:100600001F4B204C236023E0184B5B6803F47010F1
:10061000164B5B6803F48032022303EB904022B94F
:10062000194B4343174C23600DE0104B5B6803F4F8
:10063000003323B1144B4343124C236003E0104BAF
:100640004343104C236003E00D4B0E4C236000BF6E
:1006500000BF064B5B68C3F303130C4CE15C094B12
:100660001B68CB40074C236010BD00000010024007
:10067000002002400000FFF8FFFFF6FE08ED00E05A
:1006800000127A001000002000093D001400002034
:100690001FB50121042001F0D4FA0121082001F046
:1006A000C3FAC020ADF80C0048208DF80F000320DD
:1006B0008DF80E0003A9A14800F0FAFFA04801F050
:1006C0002FFF684602F02CFBFF20ADF8040000204D
:1006D000ADF80000ADF80600ADF802006946984894
:1006E00001F0F2FF02231A460321954802F0FBFBBA
:1006F000944802F028FB062092490881904802F0B5
:1007000076FA01218E4802F03BFB1FBD08B501219E
:100710000D2001F089FA01218B4801F09AF8382068
:10072000ADF8000048208DF803006946834800F0CA
:10073000BFFF0120ADF8000048208DF80300694696
:10074000824800F0B5FF08BD70B504460D4614B1EF
:1007500001207F4908707E48007800B3082177485F
:1007600001F039F820B11021744801F034F8B0B923
:10077000052000F0DCFD0020754908700120754956
:10078000087008216D4801F026F808B9022070BDF4
:1007900010216A4801F01FF890B90120F7E70821FD
:1007A000664801F018F801280AD11021634801F0C9
:1007B00012F8012804D166490870002065490870C4
:1007C0000020E4E770B50446002514B10120624919
:1007D00008706148007808B301215C4800F0FBFF15
:1007E000E0B9022000F0A3FD00205B490870012160
:1007F000564800F0F0FFC8B908E0022000F097FD6D
:10080000681CC5B2C82D01DB022070BD01214F4814
:1008100000F0E1FF0028F0D00120F6E701214B486D
:1008200000F0D9FF012801D14B4908700020ECE706
:1008300070B50446002514B10120484908704748A6
:10084000007808B320213D4800F0C5FFE0B9022040
:1008500000F06DFD0020414908702021374800F06C
:10086000BAFFC8B908E0022000F061FD681CC5B2FB
:10087000C82D01DB022070BD2021304800F0ABFF05
:100880000028F0D00120F6E720212C4800F0A3FF3B
:10089000012801D1314908700020ECE710B5002093
:1008A0002F49C8702F48007850B92E480078401C56
:1008B0002C490870224802F01AFD2B4908603CE0E0
:1008C0001F4802F014FD29490860084600682649BF
:1008D0000968401A264908600846006800280FDDAC
:1008E00022480068FE2807DB1F480068022803DC56
:1008F000FF201B49C87016E001201949C87012E09A
:100900001B48006800280EDA17480068FE2807DB3D
:1009100016480068022803DC01201149C87002E073
:10092000FF200F49C87010480068104909688842C4
:1009300003D00E4800680C49086010BD000C01404F
:1009400000080040C40100200002300000080140FF
:10095000310000200E000020320000203300002073
:100960000900002030000020240000202C0000207E
:100970002800002008B54FF44060ADF800000320C7
:100980008DF8020010208DF803006946964800F0AB
:100990008FFE4FF48061944800F037FF4FF4006100
:1009A000914800F032FF08BD08B54FF40060ADF883
:1009B000000003208DF8020010208DF80300694626
:1009C000894800F075FE08BD08B54FF40060ADF829
:1009D000000048208DF803006946834800F068FE57
:1009E00008BD10B5FFF7E0FF4FF400617E4800F04E
:1009F0000CFF4FF480617C4800F007FF052000F0F9
:100A000072FC4FF40061784800F001FF062000F00E
:100A10006AFC4FF48061744800F0F9FE10BD10B517
:100A2000FFF7C2FF4FF480616F4800F0F0FE4FF413
:100A300000616D4800F0EBFE4FF480616A4800F001
:100A4000E4FE062000F04FFC4FF40061664800F021
:100A5000DCFE062000F047FC10BD10B54FF48061AD
:100A6000614800F0D4FEFFF79FFF4FF400615E483D
:100A700000F0CDFE022000F036FC4FF480615A48B1
:100A800000F0C3FE052000F02EFC4FF480615648B4
:100A900000F0BDFE10BD10B54FF48061524800F06B
:100AA000B6FEFFF781FF4FF400614F4800F0ADFE46
:100AB000022000F018FC4FF480614B4800F0A5FEC6
:100AC000052000F010FC4FF48061474800F09FFEC5
:100AD00010BD10B50024FFF777FF4FF400614248C6
:100AE00000F093FE012000F0FEFB4FF480613E48D1
:100AF00000F08BFE012000F0F6FB07E0601CC4B2A2
:100B0000FA2C03DDFFF78BFF012010BD4FF40061CD
:100B1000354800F060FE0028F0D14FF48061324883
:100B200000F075FE0020F0E770B504460025FFF7E1
:100B30003BFF4FF480612C4800F069FE00BF22E0CB
:100B400004F08000002805DD4FF40061264800F025
:100B50005CFE04E04FF40061234800F058FE60069C
:100B6000040E4FF48061204800F04FFE022000F098
:100B7000BAFB4FF480611C4800F049FE022000F0EF
:100B8000B2FB681CC5B2082DDADB70BD70B5054636
:100B900000260024FFF718FF00BF1BE04FF4806120
:100BA000114800F034FE022000F09DFB4FF48061FC
:100BB0000D4800F02AFE6006040E4FF400610A485A
:100BC00000F009FE08B1601CC4B2012000F08BFBEC
:100BD000701CC6B2082EE1DB15B9FFF75CFF01E01F
:100BE000FFF73BFF204670BD000C014070B5054685
:100BF0000C46FFF7F6FED020FFF796FFFFF769FFE0
:100C00002846FFF791FFFFF764FF2046FFF78CFFB0
:100C1000FFF75FFFFFF703FF70BD2DE9F0410746C7
:100C20000C461546FFF7DDFED020FFF77DFFFFF7EE
:100C300050FF3846FFF778FFFFF74BFFFFF7D1FE75
:100C4000D120FFF771FFFFF744FF002606E00120E7
:100C5000FFF79CFF2070641C701CC6B2681EB04277
:100C6000F5DC0020FFF792FF2070FFF7D8FEBDE80B
:100C7000F08110B500216B20FFF7B8FF0721192084
:100C8000FFF7B4FF06211A20FFF7B0FF01211C2057
:100C9000FFF7ACFF18211B20FFF7A8FF10BD08B518
:100CA00000200090012269467520FFF7B6FF9DF8ED
:100CB00000103DA006F05AFF08BD1CB504460622F0
:100CC00069463B20FFF7A9FF9DF801009DF8001041
:100CD00040EA012000B220809DF803009DF8021038
:100CE00040EA012000B260809DF805009DF80410E4
:100CF00040EA012000B2A0801CBD1CB504460622BB
:100D000069464320FFF789FF9DF801009DF8001018
:100D100040EA012000B220809DF803009DF80210F7
:100D200040EA012000B260809DF805009DF80410A3
:100D300040EA012000B2A0801CBD38B50446022262
:100D400069464120FFF769FF9DF801009DF80010FA
:100D500040EA012000B2208038BD2DE9F84F8246DC
:100D6000022269464120FFF758FF9DF801009DF8D7
:100D7000001040EA01200FFA80FB43F29030584403
:100D800007F05DFB80460022094B07F0D1F90646CB
:100D90000022084B07F030FC044607F021FB00B2AC
:100DA000AAF80000BDE8F88F25640D0A00000000D5
:100DB0000080714000002A4070B50546002405E01F
:100DC000601CC4B2C82C01DD002070BD022139486E
:100DD00001F06FFB0028F3D02946364801F016FBDE
:100DE000002405E0601CC4B2C82C01DD0020ECE743
:100DF0000121304801F05DFB0028F3D02D4801F0BF
:100E000007FBC0B2E1E700B587B00121082000F080
:100E10000BFF0121080300F007FFE020ADF81800E8
:100E200018208DF81B0003208DF81A0006A922480F
:100E300000F03EFCE021204800F0E7FC0020ADF887
:100E400004004FF48270ADF806000020ADF80800F1
:100E50000220ADF80A000120ADF80C004002ADF808
:100E60000E003820ADF810000020ADF81200072069
:100E7000ADF8140001A90F4801F0F2F901210D4865
:100E800001F093FAFF20FFF797FF07B000BD10B500
:100E90000446084800884FF6C77108400549088095
:100EA00008460088204308800121024801F07DFAAD
:100EB00010BD0000003001400008014000B587B0BF
:100EC00001210C2000F0B0FE1420ADF81800102015
:100ED0008DF81B0003208DF81A0006A9B34800F016
:100EE000E7FB0820ADF8180028208DF81B0006A9A4
:100EF000AE4800F0DDFB1C21AC4800F088FCFFF799
:100F000082FF0021AA4801F050FA0020ADF8040049
:100F10004FF48270ADF806000020ADF80800ADF87F
:100F20000A00ADF80C004FF40070ADF80E00182068
:100F3000ADF810000020ADF812000720ADF8140045
:100F400001A99B4801F08CF90121994801F02DFA83
:100F500000209849086001209749C1F8880107B02E
:100F600000BD2DE9F04107460D4616460020914987
:100F7000083908603846FFF71FFF8046002405E067
:100F8000FF20FFF719FF2855601CC4B2B442F7DBFD
:100F900001208849083908604046BDE8F0812DE904
:100FA000F04107460C461546002082490839086082
:100FB0003846FFF701FF8046002605E014F8010BD4
:100FC000FFF7FAFE701CC6B2AE42F7DB012079498A
:100FD000083908604046BDE8F0811CB577A103C917
:100FE000CDE900010820FFF752FF052269463020B5
:100FF000FFF7D5FF052269461020FFF7B2FF002456
:1010000006E01DF80400A52800D003E0601CC4B26F
:10101000052CF6DB00BF052C01D001201CBD0020F3
:10102000FCE770B505460C460020624908390860A7
:101030002846FFF7C1FE06462046FFF7BDFE012009
:101040005D49C1F88801304670BD70B50446002086
:101050005849083908602046FFF7AEFEFF20FFF729
:10106000ABFE054601205449C1F88801284670BDF1
:1010700070B505461020FFF70AFF00204D490860B3
:1010800005222946A020FFF78AFF01204A49C1F81E
:10109000900100BF4748843800680028FAD1072033
:1010A000FFF7D3FF044621462720FFF7BAFF04F0DD
:1010B000100028B1FF21E120FFF7B3FF102070BD21
:1010C00004F0200008B12020F9E7FF20F7E770B511
:1010D00004461020FFF7DBFE0720FFF7B6FF0546AA
:1010E00029462720FFF79DFF05F0400050B105225B
:1010F00021466120FFF735FFFF21E220FFF791FF36
:10110000002070BD0120FCE710B5002029490860CF
:1011100005222C492A20FFF742FF01212120FFF759
:1011200080FF01212220FFF77CFF28212520FFF7E7
:1011300078FF05213120FFF774FF27212620FFF7D4
:1011400070FF0F212020FFF76CFF01201A49C1F822
:10115000900110BD10B500201649086005221A49FB
:101160003020FFF71CFF052216492A20FFF717FF42
:1011700001212120FFF755FF01212220FFF751FF18
:101180001A212420FFF74DFF28212520FFF749FFD2
:1011900027212620FFF745FF0E212020FFF741FFE2
:1011A00001200549C1F8900110BD00000008014070
:1011B000003001409001214200002142A5A5A5A5D3
:1011C000A50000000F8F00080A8F00087FB50546B4
:1011D0000C460121022000F034FDADF80850ADF8B6
:1011E00004400020ADF80A00ADF8060001A92C4823
:1011F00001F06AFA01221146294801F0DCFD1D20A8
:101200008DF8000000208DF8010003208DF8020009
:1012100001208DF80300684600F081F90121204883
:1012200001F0AEFD7FBD10B501211D4802F071F83F
:1012300008B301211A4802F07DF81A480078012805
:101240000CD119480078401C1749087008460078EE
:10125000122803DB00200870124908701348007838
:10126000401C1249087008460078062803DB00205D
:101270000870FFF713FB10BD00200D49088048805F
:101280008880704702464B88881DC2544B88581C82
:1012900000EBD0735B10A0EB43034B800120704741
:1012A00000040040340000203500002036000020FB
:1012B0003800002010B56FF0040000F07AF92E48D5
:1012C00000682E49B0FBF1F02D49087008460078FF
:1012D00000EB4001C1EBC0104FF6FF7101EAC00006
:1012E0002849088010BD0146254A12784A434FF02C
:1012F000E0235A6100229A611A46126942F0010203
:101300001A6100BF4FF0E022106900F001021AB12B
:1013100000F48032002AF5D04FF0E022126922F06A
:1013200001024FF0E0231A6100229A6170470146E2
:10133000144A12884A434FF0E0235A6100229A610E
:101340001A46126942F001021A6100BF4FF0E02212
:10135000106900F001021AB100F48032002AF5D0C1
:101360004FF0E022126922F001024FF0E0231A61EF
:1013700000229A61704700001000002000127A00DD
:10138000400000204200002010B54FF4A06000F0A3
:10139000C1F810BD014600BF704700BF494A12881E
:1013A00002F04002002AF9D0C2B2464B1B1D1A803F
:1013B000704710B586B00446012144F2040000F0E5
:1013C00033FC4FF40070ADF8140003208DF81600C4
:1013D00018208DF8170005A93B4800F069F94FF473
:1013E0008060ADF8140004208DF8170005A9364878
:1013F00000F05EF925208DF8000003208DF8010033
:101400008DF8020001208DF80300684600F087F88F
:1014100001940020ADF80800ADF80A00ADF80C000A
:10142000ADF810000C20ADF80E0001A9254800F021
:10143000A2FC012240F22551224800F034FD012196
:10144000204800F024FD06B010BD10B540F2255133
:101450001C4800F00DFE10B31A4800F089FDC4B21C
:101460001A48008800F40040C8B91848008800F401
:10147000804060B10A2C03D000201449088020E08D
:101480001248008840F400401049088019E00D2CF3
:1014900006D10E48008840F480400C49088010E0D6
:1014A0000A480088C0F30D0009490C540748008819
:1014B000401C0649088008460088C72801DD002036
:1014C000088010BD0038014000080140480000209D
:1014D000CE0100200948804709480047FEE7FEE7A3
:1014E000FEE7FEE7FEE7FEE7FEE7FEE7FEE7FEE7D4
:1014F00004480549054A064B704700008F0500085F
:10150000ED000008380300203809002038050020CD
:101510003805002031490143314A1160704770B5E8
:10152000002100230F22C47804B32D4C246804F456
:10153000E064C4F5E064210AC1F10403CA404478C0
:1015400004FA03F18478144021430901254C0678FC
:10155000A155047804F01F050124AC4005786D11F5
:10156000AD0005F1E025C5F8004109E0047804F07C
:101570001F050124AC401C4D0678761145F8264025
:1015800070BD1A4A0A400243154B1B1F1A60704770
:1015900039B1134A121D12680243114B1B1D1A6008
:1015A00006E00F4A121D126882430D4B1B1D1A6084
:1015B0007047042808D14FF0E021096941F0040187
:1015C0004FF0E022116107E04FF0E021096921F0BE
:1015D00004014FF0E0221161704700000000FA059D
:1015E0000CED00E000E400E080E100E080FFFF1F80
:1015F00010B50446CC48844208D10121042000F0F3
:101600002DFB0021042000F029FB46E0C74884425E
:1016100008D10121082000F021FB0021082000F062
:101620001DFB3AE0C248844208D10121102000F09D
:1016300015FB0021102000F011FB2EE0BD48844274
:1016400008D10121202000F009FB0021202000F01A
:1016500005FB22E0B848844208D10121402000F077
:10166000FDFA0021402000F0F9FA16E0B348844268
:1016700008D10121802000F0F1FA0021802000F043
:10168000EDFA0AE0AE48844207D10121801500F04E
:10169000E5FA0021A01500F0E1FA10BD10B5012116
:1016A000084600F0DBFA0021012000F0D7FA10BD57
:1016B0002DE9F041024600250026002000230024E9
:1016C000002791F803C00CF00F0591F803C00CF04F
:1016D000100CBCF1000F03D091F802C04CEA0505D4
:1016E00091F800C0BCF1000F31D0146800202BE04D
:1016F0004FF0010C0CFA00F3B1F800C00CEA03063D
:101700009E4220D183004FF00F0C0CFA03F7BC432C
:1017100005FA03FC4CEA040491F803C0BCF1280F5D
:1017200006D14FF0010C0CFA00FCC2F814C00AE01C
:1017300091F803C0BCF1480F05D14FF0010C0CFA31
:1017400000FCC2F810C0401C0828D1D31460B1F8C6
:1017500000C0BCF1FF0F34DD546800202EE000F122
:10176000080C4FF0010808FA0CF3B1F800C00CEABD
:1017700003069E4221D183004FF00F0C0CFA03F7B1
:10178000BC4305FA03FC4CEA040491F803C0BCF125
:10179000280F05D100F1080C08FA0CF8C2F81480E3
:1017A00091F803C0BCF1480F07D100F1080C4FF0CD
:1017B000010808FA0CF8C2F81080401C0828CED3A3
:1017C0005460BDE8F0814FF6FF7101800221817005
:1017D0000421C17070470246002093680B400BB192
:1017E000012000E0002070470146886880B2704701
:1017F00002460020D3680B400BB1012000E000201E
:1018000070470146C86880B2704701617047416106
:1018100070470AB1016100E041617047C1607047E3
:101820004FF480320A4382618161826182698269F8
:10183000704702460020434B18684FF680731840EB
:1018400040EA021008433F4B186070473E49C861A8
:101850007047F0B50A46002300240021002500F05F
:101860000046B6F1004F02D1364EF16901E0354E27
:101870007168C0F3034583B200F44016B6F5401F0B
:1018800008D121F070612F4E766826F070662D4FDA
:101890007E6012E000F48016B6F5801F06D10326A4
:1018A00006FA05F4A14341F0706106E0460D3601E9
:1018B00003FA06F6B14341F0706122B1460D3601DC
:1018C00003FA06F6314300F00046B6F1004F02D1AC
:1018D0001C4EF16101E01B4E7160F0BD30B500227D
:1018E0008B071C0F0F2303FA04F2164B08338C10DE
:1018F00053F824309343134C08348D1044F82530AA
:1019000023468C1053F824308C07240F00FA04F47B
:1019100023430C4C08348D1044F8253030BD0A495F
:10192000DC3108607047000000080140000C0140F5
:10193000001001400014014000180140001C01404B
:10194000002001400000014000002042DF48006804
:1019500040F00100DD49086008464068DC49084065
:10196000DA49486008460068DA490840D749086003
:101970000846006820F4802008600846406820F48B
:10198000FE0048604FF41F0088607047CF49096827
:1019900021F48031CD4A11601146096821F480217B
:1019A0001160B0F5803F03D0B0F5802F0ED106E076
:1019B000C649096841F48031C44A116007E0C3494F
:1019C000096841F4A021C14A116000E000BF00BFD6
:1019D000704710B501460022002300204A11012A59
:1019E00002D1BA4C236806E0022A02D1B74C236A1E
:1019F00001E0B64C636A01F01F02012494401C40D0
:101A00000CB1012000E0002010BD38B5002000908E
:101A10000024002500BF3120FFF7DBFF05460098BA
:101A2000401C00900098B0F5A06F01D0002DF2D0BE
:101A30003120FFF7CEFF08B1012400E0002420464A
:101A400038BD01460020A14A106820F0F80040EAA5
:101A5000C10010607047A04908607047024600202E
:101A60009A4B586820F47C1042EA01031843974BC4
:101A70005860704798490866704701460020934AAD
:101A8000506820F003000843506070478F4840685A
:101A900000F00C007047014600208C4A506820F08E
:101AA000F00008435060704701460020874A5068A4
:101AB00020F4E06008435060704701460020834AEC
:101AC000506820F4605040EAC1005060704729B16E
:101AD0007E4A527A02437D4B5A7204E07B4A527A24
:101AE00082437A4B5A7270477B49D83108607047FD
:101AF00001460020754A506820F440400843506079
:101B000070470021714A20321170704A82F820100B
:101B1000012802D004280AD104E001216B4A2032B6
:101B2000117005E00521694A2032117000E000BF04
:101B300000BF70476949086070476449096A0143FA
:101B4000624A11627047654944390860704730B590
:101B500000210022002400235C4D6D6805F00C017B
:101B600021B1042905D0082923D105E05C4D056089
:101B700022E05B4D05601FE0544D6D6805F4701266
:101B8000524D6D6805F48034022505EB92421CB974
:101B9000544D554305600BE04C4D6D6805F4003520
:101BA0001DB1504D5543056002E04D4D5543056054
:101BB00002E04B4D056000BF00BF444D6D6805F06D
:101BC000F0010909484D6B5C0568DD4045603F4DFB
:101BD0006D6805F4E061090A434D6B5C4568DD40C2
:101BE00085603A4D6D6805F46051C90A3E4D6B5CE5
:101BF0004568DD40C560354D6D6805F44041890B91
:101C00003A4D6B5CC568B5FBF3F5056130BD29B194
:101C10002E4A526902432D4B5A6104E02B4A526905
:101C200082432A4B5A61704729B1284A926902437C
:101C3000264B9A6104E0254A92698243234B9A61BC
:101C4000704729B1214AD2690243204BDA6104E08E
:101C50001E4AD26982431D4BDA61704729B11B4A83
:101C6000D2680243194BDA6004E0184AD268824312
:101C7000164BDA60704729B1144A12690243134BBC
:101C80001A6104E0114A12698243104B1A617047CD
:101C900012494039086070470F49C86470470B49C2
:101CA000C87170470948406A40F08070074948622F
:101CB000704701460020054A92680A400AB1012097
:101CC00000E0002070470149887270470010024010
:101CD0000000FFF8FFFFF6FE00004242800442428F
:101CE00000127A0000093D004A0000205A0000203E
:101CF00010B50446FB48844209D101218803FFF74F
:101D0000ADFF00214FF48040FFF7A8FF32E0F64816
:101D1000844209D101214804FFF7ADFF00214FF4AF
:101D20000030FFF7A8FF25E0F048844209D10121E7
:101D30008804FFF7A0FF00214FF48020FFF79BFFEE
:101D400018E0EB48844209D10121C804FFF793FF52
:101D500000214FF40020FFF78EFF0BE0E54884429E
:101D600008D101210805FFF786FF00214FF48010FC
:101D7000FFF781FF10BD2DE9F04786B005460E46FE
:101D80000024A24600BFA1460027B08900B100BFD1
:101D90002F462C8A4CF6FF700440F08804432C82B6
:101DA000AC894EF6F3100440B0883189084371893C
:101DB00008430443AC81AC8A4FF6FF400440B0892D
:101DC0000443AC8201A8FFF7C2FEC648874202D195
:101DD000DDF810A001E0DDF80CA0A88900F40040B7
:101DE00040B10AEBCA0000EB0A1031684900B0FBB1
:101DF000F1F807E00AEBCA0000EB0A10316889002D
:101E0000B0FBF1F86420B8FBF0F004012009642174
:101E100001FB1089A88900F4004040B1322000EB9A
:101E2000C900B0FBF1F000F00700044308E03220E5
:101E300000EB09106421B0FBF1F000F00F00044347
:101E40002C8106B0BDE8F0874FF4165101600021E7
:101E50008180C18001810C214181002181817047F5
:101E600010B502460020108A4FF2FF0318400B887D
:101E70004C8823438C882343CC8823431843108207
:101E800010BD0021018041808180C180704721B157
:101E9000828942F40052828104E082894DF6FF7308
:101EA0001A4082817047F0B50346002400260025C1
:101EB000002040F66A17B94200D100BF1846C1F3AE
:101EC000421401F01F06012707FA06F5012C01D183
:101ED0000C3004E0022C01D1103000E014301AB1B3
:101EE00007682F43076002E00768AF430760F0BD53
:101EF0001AB1838A0B43838202E0838A8B438382F5
:101F00007047028A4FF6F0731A400282028A0A432F
:101F10000282704782894FF2FF731A408281828960
:101F20000A438281704721B1828942F00202828194
:101F300004E082894FF6FD731A4082817047028A5D
:101F40004FF6DF731A400282028A0A430282704708
:101F500021B1028A42F48042028204E0028A4BF6F6
:101F6000FF731A4002827047C1F3080282807047F3
:101F700001468888C0F308007047818941F001015B
:101F800081817047028BD2B20283028B42EA012226
:101F900002837047028B02F47F420283028B0A4362
:101FA0000283704721B1828A42F02002828204E0DB
:101FB000828A4FF6DF731A408282704721B1828A8B
:101FC00042F01002828204E0828A4FF6EF731A40D8
:101FD0008282704721B1828A42F00802828204E044
:101FE000828A4FF6F7731A408282704721B1828944
:101FF00042F40042828103E08289C2F30E028281B0
:10200000704721B1828A42F40062828204E0828AAF
:102010004FF2FF731A4082827047828A4FF6FB7339
:102020001A408282828A0A438282704721B1828A60
:1020300042F00202828204E0828A4FF6FD731A4067
:102040008282704702460020B1F5007F00D100BFB8
:1020500013880B400BB1012000E00020704701F411
:102060000072B2F5007F00D100BFCA430280704702
:1020700070B50246002400230025002040F66A16B1
:10208000B14200D100BFC1F3421501F01F03012688
:1020900006FA03F3012D02D19689334006E0022DA2
:1020A00002D1168A334001E0968A33400C12012691
:1020B00006FA04F41688344013B10CB1012000E094
:1020C000002070BD10B50022002340F66A14A14222
:1020D00000D100BF0A1201249440A3B2DC43048063
:1020E00010BD00000038014000440040004800409E
:1020F000004C004000500040002044490860091D89
:102100000860091D0860091D086041483F491431F5
:102110000860704700213D498279002A3AD00A467A
:10212000126803689A430B461A600A1D1268036816
:102130009A430B1D1A60027911440A6803681A4316
:102140000A60324A0832126803689A432F4B0833F8
:102150001A601A1D126803689A432C4B0C331A60DC
:102160004279102A0ED11A1F126803681A43274BAE
:1021700008331A601A1D126803681A43234B0C3384
:102180001A600DE02149427911440A6803681A4334
:102190000A6005E0027911440A6803689A430A60FC
:1021A00070470021016001710C2141710021817192
:1021B00070471649103109680143144A1032116002
:1021C000704701460020114A143212680A400AB1D1
:1021D000012000E0002070470C491431086070476E
:1021E000014600200022094B1B6803EA0102074B4D
:1021F00014331B680B4013B10AB1012000E000202A
:102200007047024914310860704700000004014023
:10221000FFFF0F0010B50446BE48844208D10121DB
:102220008014FFF71BFD0021A014FFF717FD16E037
:10223000B948844208D101210014FFF71CFD002198
:102240002014FFF718FD0AE0B448844207D10121A9
:10225000C013FFF710FD0021E013FFF70CFD10BDC8
:1022600010B50022028802F441520B884C882343A7
:102270008C882343CC8823430C8923434C892343F4
:102280008C892343CC8923431A430280838B4FF2EA
:10229000FF74234083830B8A038210BD2DE9F04F26
:1022A00085B005460C464FF0000902274FF00008A4
:1022B0004FF0010B0026B246A88B4FF240010840B8
:1022C000A88302202884B5F81C90A068022801D1B8
:1022D00000BF38E0A08810B94FF0010B01E04FF0CB
:1022E000020B8D48854200D100E000BF6846FFF731
:1022F0002EFCDDF800A0E088B0F5007F0AD14FEA9F
:102300001A2000EB80004000A168B0FBF1F0401DF6
:1023100086B20BE04FEA4B10BAFBF0F000EB800006
:102320004000A168B0FBF1F0401D86B20A20B6FB68
:10233000F0F606F00108A6EB0800C0F34F074FF6D1
:10234000FF7000EA0828022F01DBFF2F02DD0227C1
:102350004FF00008E08840EA080038432884A0884D
:10236000A1890843618808432188084340F400603C
:1023700040EA0909A5F81C9005B0BDE8F08F0021DE
:10238000018041808180C180018141818181C18141
:102390000721018270470021018041808180C18036
:1023A0000221816000218181704721B1028842F0C1
:1023B0004002028004E002884FF6BF731A40028098
:1023C000704721B1828B42F48062828304E0828B69
:1023D0004FF6FF331A408283704730B50024002344
:1023E0000C110125A540ABB21AB185881D4385802B
:1023F00002E085889D43858030BD1AB183880B43F8
:10240000838002E083888B4383807047818170479B
:102410000146888970474FF6FF62914204D00288D6
:1024200042F48072028004E002884FF6FF631A4093
:102430000280704721B1828842F00402828004E069
:1024400082884FF6FB731A408280704702884FF2F1
:10245000FF731A40028002880A4302807047018895
:1024600041F480510180704721B1028842F400524A
:10247000028004E002884DF6FF731A400280704724
:1024800002460020012901D0108B00E0908A70479D
:102490000146088A7047B1F5804F04D1028842F4A2
:1024A0008042028004E002884BF6FF731A400280EB
:1024B00070470246002013890B400BB1012000E059
:1024C00000207047CA4302817047F0B502460020E1
:1024D00000240023002501F00F070126BE40B4B2FE
:1024E0000B1101269E40B3B2968806EA03051689B1
:1024F000264016B10DB1012000E00020F0BD10B55E
:10250000002201F00F040123A3409AB2D3430381B8
:1025100010BD00000030014000380040003C004089
:1025200010B50446FE48844208D10121C014FFF7CB
:1025300095FB0021E014FFF791FBC4E0B4F1804F5C
:1025400008D101210846FFF796FB00210120FFF783
:1025500092FBB8E0F348844208D101210220FFF742
:102560008AFB00210220FFF786FBACE0EE488442A4
:1025700008D101210420FFF77EFB00210420FFF792
:102580007AFBA0E0E948844208D101210820FFF746
:1025900072FB00210820FFF76EFB94E0E4488442C0
:1025A00008D101211020FFF766FB00211020FFF762
:1025B00062FB88E0DF48844208D101212020FFF738
:1025C0005AFB00212020FFF756FB7CE0DA488442CA
:1025D00008D101214014FFF741FB00216014FFF7EF
:1025E0003DFB70E0D548844209D10121C804FFF7C2
:1025F00035FB00214FF40020FFF730FB63E0D048AB
:10260000844209D101210805FFF728FB00214FF47E
:102610008010FFF723FB56E0CA48844209D101210C
:102620004805FFF71BFB00214FF40010FFF716FBD6
:1026300049E0C548844208D101214020FFF71BFB37
:1026400000214020FFF717FB3DE0C048844208D13D
:1026500001218020FFF70FFB00218020FFF70BFBFB
:1026600031E0BB48844208D101218015FFF703FB0C
:102670000021A015FFF7FFFA25E0B648844209D1F2
:1026800001210804FFF7EAFA00214FF48030FFF738
:10269000E5FA18E0B048844209D101214804FFF767
:1026A000DDFA00214FF40030FFF7D8FA0BE0AB4819
:1026B000844208D101218804FFF7D0FA00214FF4A9
:1026C0008020FFF7CBFA10BD00220288944B98427D
:1026D0000ED0994B98420BD0B0F1804F08D0914B5F
:1026E000984205D0904B984202D0904B984204D12A
:1026F0004FF68F731A404B881A438D4B984207D080
:102700008C4B984204D04FF6FF431A40CB881A43B3
:1027100002808B8883850B880385814B98420BD080
:10272000854B984208D08B4B984205D08A4B9842F3
:1027300002D08A4B984201D10B7A0386012383820F
:10274000704770B5002400220023058C4FF6FE76FA
:1027500035400584028C8388048B4FF68F752C409E
:10276000B51E2C400D882C43751E2A400D892A4326
:102770004D882A436A4DA8420BD06F4DA84208D01D
:10278000744DA84205D0744DA84202D0734DA842A2
:1027900013D14FF6F7752A404D892A434FF6FB7542
:1027A0002A408D882A434FF6FF652B404FF6FF5590
:1027B0002B408D892B43CD892B4383800483CD8887
:1027C0008586028470BD70B5002400220023058C2C
:1027D0004FF6EF7635400584028C8388048B48F6EB
:1027E000FF752C404FF6FF452C400D884FF6FF76C5
:1027F00006EA05252C434FF6DF752A400D8906EAC7
:1028000005152A434D8806EA05152A43444DA8427A
:1028100002D0494DA8421DD14FF67F752A404D89FF
:102820004FF6FF7606EA05152A434FF6BF752A4094
:102830008D8806EA05152A434FF6FF352B404FF2E7
:10284000FF752B408D8906EA85052B43CD8906EA65
:1028500085052B4383800483CD880587028470BD62
:1028600070B5002400220023058C4FF6FF6635402A
:102870000584028C8388848B4FF68F752C404FF62D
:10288000FC752C400D882C434FF6FF552A400D89CE
:102890004FF6FF7606EA05252A434D8806EA052508
:1028A0002A431F4DA84202D0234DA8421DD14FF20A
:1028B000FF752A404D894FF6FF7606EA05252A4323
:1028C0004FF6FF352A408D8806EA05252A434EF645
:1028D000FF752B404DF6FF752B408D8906EA0515D7
:1028E0002B43CD8906EA05152B4383808483CD884D
:1028F0008587028470BD70B5002200230024058CFA
:102900004EF6FF7635400584038C8488828B48F62A
:10291000FF752A404FF6FF452A400D8820E0000051
:10292000002C01400004004000080040000C004062
:10293000001000400014004000340140004C0140F1
:10294000005001400054014000180040001C0040AD
:102950000020004000400140004401400048014088
:102960004FF6FF7606EA05252A434DF6FF752B4004
:102970000D8906EA05352B434D8806EA05352B43BC
:10298000FA4DA84202D0FA4DA84208D14BF6FF7585
:102990002C408D894FF6FF7606EA85152C438480FE
:1029A0008283CD88A0F84050038470BD828B4FF2A3
:1029B000FF331A408283828B4FF6FF7303EA0123B1
:1029C0001A4382837047F0B50C4615460022002159
:1029D0000026078C4EF6FF7C07EA0C070784828BE3
:1029E000018C4FF6FF7707EA043640F6FF473A407E
:1029F0004FF6FF7707EA05273A434FF6FF7707EAD6
:102A000003373A43D94FB8420ED0D94FB8420BD012
:102A1000B0F1804F08D0D74FB84205D0D64FB8425A
:102A200002D0D64FB84206D14DF6FF77394046F472
:102A30008057394305E047F6FF57394044F4805743
:102A4000394382830184F0BD828B4FF6F3731A40C1
:102A50008283828B0A4382837047F0B50C46154609
:102A6000002200210026078C4FF6FF6C07EA0C07B6
:102A70000784828B018C4FF6FF7707EA04264FF616
:102A80000C773A404FF6FF7707EA03172F433A4394
:102A9000B64FB8420ED0B64FB8420BD0B0F1804F0F
:102AA00008D0B44FB84205D0B34FB84202D0B34FAC
:102AB000B84206D14FF6FF57394046F48077394384
:102AC00005E04FF2FF57394044F480773943828361
:102AD0000184F0BD028B4FF2FF331A400283028B58
:102AE0004FF6FF7303EA01231A4302837047F0B5E0
:102AF0000C461546002200210026078C4FF6EF7C7D
:102B000007EA0C070784028B018C4FF6FF7707EA70
:102B1000041640F6FF473A404FF6FF7707EA0337BF
:102B20003A434FF6FF7707EA05273A438F4FB842FB
:102B30000ED08F4FB8420BD0B0F1804F08D08D4FE0
:102B4000B84205D08C4FB84202D08C4FB84206D163
:102B50004FF6DF77394046F01007394305E04FF66E
:102B60005F77394044F01007394302830184F0BD98
:102B7000028B4FF6F3731A400283028B0A430283DF
:102B80007047F0B50C46154600220021068C4FF622
:102B9000FE773E400684028B018C4FF60C76324065
:102BA0007E1C06EA03162E433243704EB0420ED00E
:102BB0006F4EB0420BD0B0F1804F08D06D4EB04296
:102BC00005D06D4EB04202D06C4EB04206D14FF6E9
:102BD000FD76314044F00106314305E04FF6F576CD
:102BE000314044F00106314302830184F0BD70B5E9
:102BF00005460C465D4885420ED05D4885420BD0A7
:102C0000B5F1804F08D05B48854205D05A488542CF
:102C100002D05A48854200D100E000BF208850B958
:102C20002389A28861882846FFF7ABFFE188284600
:102C3000FFF79EFF25E0208804280AD12389A28877
:102C400061882846FFF753FFE1882846FFF742FFD7
:102C500017E0208808280AD12389A288618828469D
:102C6000FFF7FBFEE1882846FFF7EEFE09E0238927
:102C7000A28861882846FFF7A6FEE1882846FFF76C
:102C800095FE70BD2DE9F04105460C460026012752
:102C9000608808B9022600E00026A088012801D13A
:102CA000022700E001272088A0B92389A288618833
:102CB0002846FFF766FFE1882846FFF759FF23897A
:102CC0003A4631462846FFF712FFE1882846FFF7CB
:102CD00001FF13E02389A28861882846FFF707FFD8
:102CE000E1882846FFF7F6FE23893A463146284612
:102CF000FFF747FFE1882846FFF73AFFBDE8F0817C
:102D00000A884B881A438B881A43CB881A430B894D
:102D10001A434B891A438B891A43A0F84420704701
:102D20004FF6FF71818000210180C18041800172D6
:102D300070470021018041808180C18001814181F3
:102D40008181C18170470021018041800121818002
:102D50000021C18001817047002101804180818074
:102D6000C18001814181818170470000002C0140B8
:102D7000003401400004004000080040000C004006
:102D800021B1028842F00102028004E002884FF67D
:102D9000FE731A400280704731B1B0F8442042F40B
:102DA0000042A0F8442005E0B0F84420C2F30E022F
:102DB000A0F8442070471AB183890B43838102E055
:102DC00083898B43838170478182704741EA020384
:102DD000A0F8483070471AB183890B43838102E021
:102DE00083898B438381704701894FF6F8721140C4
:102DF000018170470A46002101894FF68F731940FF
:102E000011430181704730B504460D4629462046DE
:102E1000FFF7F0FF208940F00700208130BD2DE949
:102E2000F04104460D4616461F46602D06D13B462E
:102E3000012231462046FFF75AFE05E03B460122BB
:102E400031462046FFF79DFE29462046FFF7D2FF78
:102E5000208940F007002081BDE8F08130B50C46A4
:102E600000210189C9B24FF6FF7505EA0325154314
:102E700025432943018130BD2DE9F04105460E4629
:102E800017469846002443463A4631462846FFF7FF
:102E9000E5FF2C894FF6F870044044F007044FF624
:102EA0008F70044044F070042C81BDE8F081F0B5CF
:102EB00004460D4616461F463B46324629462046E6
:102EC000FFF7CCFF208940F480402081F0BD0185D0
:102ED000828270470A46002101884FF68F7319409D
:102EE000114301807047F0B50C4615461E4600217F
:102EF000002200230189028B038C4FF6F8773940BA
:102F000021434FF6FC473A4040F201173A434FF64F
:102F1000DD773B404FF6FF7707EA06172F433B4329
:102F2000018102830384F0BD0A460021018B4FF624
:102F30008F7319401143018370470A460021018BAA
:102F400048F6FF7319404FF6FF7303EA0223194353
:102F5000018370470A460021818B4FF68F73194019
:102F60001143818370470A460021818B48F6FF7325
:102F700019404FF6FF7303EA022319438183704718
:102F800021B1028842F08002028004E002884FF6FC
:102F90007F731A400280704721B1828842F0040298
:102FA000828004E082884FF6FB731A40828070476B
:102FB00021B1828842F00802828004E082884FF6C4
:102FC000F7731A408280704721B1828842F0010273
:102FD000828004E082884FF6FE731A408280704738
:102FE0000A460021018B4FF6F77319401143018304
:102FF00070470A460021018B4FF2FF7319404FF6CC
:10300000FF7303EA02231943018370470A46002134
:10301000818B4FF6F77319401143818370470A463D
:103020000021818B4FF2FF7319404FF6FF7303EAC3
:1030300002231943818370470A460021018B4FF612
:10304000FB7319401143018370470A460021018B2D
:103050004FF6FF3319404FF6FF7303EA022319437B
:10306000018370470A460021818B4FF6FB7319409C
:103070001143818370470A460021818B4FF6FF334D
:1030800019404FF6FF7303EA022319438183704707
:103090000A460021018B4FF67F73194011430183CB
:1030A00070470A460021018BC1F30E014FF6FF73F2
:1030B00003EA02231943018370470A460021818BEA
:1030C0004FF67F7319401143818370470A460021F0
:1030D000818BC1F30E014FF6FF7303EA02231943FC
:1030E000818370470A460021018C4FF6FD73194019
:1030F0001143018470470A460021018C4FF6F77393
:1031000019401143018470470A460021018C4FF693
:10311000DF7319404FF6FF7303EA0213194301846A
:1031200070470A460021018C4FF67F7319404FF615
:10313000FF7303EA02131943018470470A46002112
:10314000018C4FF6FF5319404FF6FF7303EA022339
:103150001943018470470A460021018C4FF2FF7326
:1031600019404FF6FF7303EA0223194301847047A5
:103170000A460021018C4DF6FF7319404FF6FF738C
:1031800003EA023319430184704730B50023012458
:103190008C40A3B2048C9C430484048C02FA01F595
:1031A000ADB22C43048430BD30B5002304248C40E0
:1031B000A3B2048C9C430484048C02FA01F5ADB2E2
:1031C0002C43048430BD70B503460020002418460B
:1031D000183001258D40ACB21D8CA5431D8409B16A
:1031E000082909D100EB6100056825F0700505602C
:1031F0000568154305600EE00D1FC5F34E05284414
:10320000056825F4E045056005684FF6FF7606EA97
:1032100002263543056070BD21B1028842F00202EA
:10322000028004E002884FF6FD731A400280704766
:1032300021B1028842F00402028004E002884FF6C5
:10324000FB731A400280704721B1828842F08002ED
:10325000828004E082884FF67F731A408280704734
:1032600002884FF6F7731A40028002880A430280F0
:10327000704782884FF68F731A40828082880A4393
:103280008280704702894FF6F8731A4002810289E2
:103290000A430281704702894FF67F731A40028108
:1032A00002890A4302817047818470478185704793
:1032B000818670470187704781877047A0F840106A
:1032C000704702884FF6FF431A40028002880A4383
:1032D000028070470146888E70470146088F70470C
:1032E0000146888F70470146B1F84000704701469B
:1032F000888C70470146088D704702460020138A6B
:103300000B400BB1012000E000207047CA4302824D
:10331000704730B50246002000230024158A05EAD4
:103320000103958905EA010413B10CB1012000E005
:10333000002030BDCA4302827047000010B5044629
:103340002CB90120F94909680882002010BDF8490C
:10335000096808688047F54800680A30F6E710B544
:10336000F2480068C078F3494978884213DCEF4896
:103370000068807878B9ED480068808858B9EB48D3
:103380000068C078E94909688872E94909684868AD
:103390008047002010BD0220FCE710B504462CB980
:1033A0000120E24909680882002010BDE04909684F
:1033B00088688047DD4800680C30F6E710B5DB4BC5
:1033C0001B68D978D94B1B685879DB4B1B689A6905
:1033D00090470446D5480068807AE8B13CB9D348A4
:1033E0000068007918B9D1480068807808B10220D7
:1033F00010BD8CB9CE490968C8688047CB480068C1
:103400004079CA490968C872C8480068C078C74985
:10341000096808730020EBE70220E9E710B50446CD
:103420002CB90220C14909680882002010BD002083
:10343000C2490880BD480068007800F07F00E0B90C
:10344000BA490968487A00F0200129B1BB490978D6
:1034500041F00201B94A117000F0400131B1B749A1
:10346000097801F0FE01B54A117005E0B349097809
:1034700041F00101B14A11703AE0AC4800680078AF
:1034800000F07F00012801D1AC48CFE7A7480068D1
:10349000007800F07F00022828D1A44A12685179F0
:1034A00001F00F0001F080027AB1A54B03EB80021E
:1034B000D2F8002C02F03002102A16D19F4A12785E
:1034C00042F001029D4B1A700FE09D4B03EB80020E
:1034D000D2F8002C02F44052B2F5805F05D1974A31
:1034E000127842F00102954B1A7001E000209DE72E
:1034F0008F49096808698047904897E72DE9F047A8
:103500008A480068007800F07F08B8F1000F0AD1FF
:1035100086480068407A00F0DF00844909684872F4
:103520000020BDE8F087B8F1020F7DD17F48006828
:10353000408818B97D480068007908B10220F0E79A
:10354000DFF8F09179480068477927F080052C462C
:1035500076480068407900F0800038B1784901EB86
:103560008400D0F8000C00F0300606E0744901EB4E
:103570008400D0F8000C00F4405699F80000A842EE
:1035800004D91EB169480068807A08B90220C8E7EA
:1035900007F0800080B16A4901EB8400D0F8000C8C
:1035A00000F03000102843D1E0B201F013F8E0B28F
:1035B000302100F0BCFE3BE0614901EB8400D0F813
:1035C000000C00F44050B0F5805F31D1C4B95D4AC1
:1035D00092F82C10E0B201F088F8594A02EB84010D
:1035E000D1F8001C4BF68F7201EA020080F4805083
:1035F00080F40050524A02EB8401C1F8000C17E03D
:10360000E0B200F0D0FF4E4A02EB8401D1F8001C7A
:103610004BF68F7201EA020080F4805080F4005073
:10362000474A02EB840100E008E0C1F8000C00BF4B
:103630003F49096848698047002072E700BF0220BF
:103640006FE72DE9F04139480068467926F0800798
:103650003C4636480068407900F0800038B138496F
:1036600001EB8400D0F8000C00F0300506E034498E
:1036700001EB8400D0F8000C00F440552D48007890
:10368000A04208D929480068408820B91DB12748C0
:103690000068807A10B90220BDE8F08106F0800051
:1036A00080B1274A02EB8401D1F8001C48F6BF72B2
:1036B00001EA020080F01000214A02EB8401C1F807
:1036C000000C10E01E4A02EB8401D1F8001C4BF6FE
:1036D0008F7201EA020080F48050194A02EB8401E3
:1036E000C1F8000C00BF12490968886980470020B2
:1036F000D2E710B50D480068407A40F020000B4931
:10370000096848720A490968C8698047002010BDE5
:1037100010B5024605480068438AAAB98888C01ACD
:10372000024C24682082002010BD000068000020A8
:1037300074000020D80000206C0000205E000020F3
:1037400000500040DC00002008681844ECE72DE938
:10375000F041FE48006800F110042688A068C0B15E
:10376000BEB1A588B54200D93546A8B2A168884740
:1037700007462088401B2080608828446080002005
:1037800000F085FF8046AAB24146384600F06AFD47
:1037900000BF208850B14FF44050ED49088000210F
:1037A000084600F080FF3020EA4908802088A18880
:1037B000884204DB0320E5490968087218E0208884
:1037C000002804DD0520E1490968087210E020881E
:1037D00070B90620DD49096808720021DE480068DA
:1037E00080B2801CDD4A42F810103020D949088090
:1037F000BDE8F0812DE9F047D448006800F11005DC
:103800002E88D2480068077AD6B9042F18D1D44838
:10381000007801280FD10021CF48006880B2801CB9
:10382000CE4A42F810103020CA49088000BF00205C
:10383000CB49087003E007271020C649088027E01D
:10384000AC88A64201D8042000E002200746B4421A
:1038500000D93446A0B2A96888478046002000F00D
:103860000BFF8146A2B24946404600F0E1FCA1B2FE
:10387000002000F018FF2888001B2880688820445A
:1038800068803020B34908800002B149088000BF39
:10389000AE4909680F72BDE8F08770B50226AB48E3
:1038A00000684478A9480068007800F07F0000288C
:1038B0004AD1092C03D1FFF752FD064665E0052CDD
:1038C00014D1A2480068C0787F280BDC9F480068AC
:1038D000807838B99D480068808818B99B4800688E
:1038E000807A08B108256BE000264EE0032C14D145
:1038F00096480068C07801280DD1944800688088F7
:1039000048B992480068407A00F0200018B1FFF7EB
:10391000F0FE064639E0022637E0012C35D18B480F
:103920000068C07801280DD188480068808848B9AF
:1039300086480068407A00F0200018B1FFF7DEFDED
:10394000064622E0022620E080480068007800F069
:103950007F00012805D10B2C17D1FFF72FFD06465C
:1039600013E07A480068007800F07F0002280BD14D
:10397000012C03D1FFF7C2FD064606E0032C04D15B
:10398000FFF75FFE064600E002264EB1E0B2754A40
:103990001268516988470646032E01D109250FE0B8
:1039A0000EB108250CE0062500216B48006880B2A6
:1039B000801C6A4A42F8101030206649088000BF17
:1039C000624909680D7270BD2DE9F84F5F480068C3
:1039D00045780027BA46062D1BD15C480068007860
:1039E00000F07F00002813D1584909688878012821
:1039F00003D15C490968CF690AE0022803D159491B
:103A000009680F6A04E0032802D1564909684F6A21
:103A100099E0002D67D14D4800684088002862D1A8
:103A20004A480068C08802285DD14848006800798B
:103A3000002858D145480068007800F07F0030B970
:103A400042480068808810B9AFF22F677BE03F489A
:103A50000068007800F07F00012811D13B49096817
:103A60004879404909688A690021904700286AD14D
:103A700036480068807A002865D0AFF25F6762E060
:103A800032480068007800F07F0002285BD12F48A0
:103A90000068407900F00F062C480068407900F07B
:103AA00070092A480068407900F0800038B12E493A
:103AB00001EB8600D0F8000C00F0300806E02A493F
:103AC00001EB8600D0F8000C00F44058274800783D
:103AD000B04238D9B9F1000F35D1B8F1000F32D06A
:103AE000AFF2C7672FE0082D08D1184800680078AA
:103AF00000F07F0038BBAFF2BB7724E00A2D22D163
:103B000012480068007800F07F0001281BD10F48A0
:103B10000068807AB8B10D480068408898B90B48B1
:103B20000068007978B909480068C08801280AD17E
:103B30000649096848790B4909688A690021904754
:103B400008B9AFF2A977EFB1004811E06800002092
:103B5000780000207A000020505C004000600040A7
:103B6000600000206C00002000500040D8000020C1
:103B70000068A0F812A0AE48006887610020B8472E
:103B800000240FE0AA4A12685078AA4A1268116904
:103B900088470446032C05D10920A5490968087205
:103BA000BDE8F88FA2480068008A4FF6FF7188428E
:103BB00004D109209E4909680872F1E7022C03D05C
:103BC0009B480068008A20B9082099490968087252
:103BD000E6E797480068007800F08000E0B394487A
:103BE0000068C088009092480068008A0099884266
:103BF00004D98F4900980968088223E08C4800683E
:103C0000008A8B490968C98888421BDA884800689D
:103C1000008A8849096891F82C10884203DA00204C
:103C2000854908700EE082480068008A8149096869
:103C300091F82C1090FBF1F201FB120010B9012059
:103C40007D4908707B48006890F82C10784800681F
:103C50008182FFF7CFFD07E0FFE703207449096881
:103C6000087200037549088000BF99E710B57448D1
:103C700090F82C10002000F038FD6D480068007AA4
:103C8000082805D140026D49088010206D49088040
:103C900067480068007A092801D1012010BD002082
:103CA000FCE708B56848006880B2001D674931F834
:103CB000100080B201EB400000905D480068007A7F
:103CC00009282FD000980078594909680870009891
:103CD000401C009000980078554909684870009889
:103CE000401C00900098801C0090009931F8020B55
:103CF000009100F09BFE4E49096848800098801CA6
:103D00000090009931F8020B009100F08FFE4849B5
:103D1000096888800098801C0090009800884449B9
:103D20000968C88001204249096808724048006853
:103D3000C08810B9FFF7B1FD01E0FFF745FEFFF7BE
:103D400095FF08BD30B50146414B1A78002011E0BF
:103D50000306404C04EB9353D3F8003C48F68F74B1
:103D60002340C4B2234304063A4D05EB9454C4F8EF
:103D7000003C401C9042EBD341F08003324C241FA6
:103D8000236030BD10B52A480068047A022C01D0A7
:103D9000042C05D1FFF72EFD25480068047A1CE0AD
:103DA000062C19D122480068407805280ED12048F9
:103DB0000068007800F07F0040B91D490968C878A4
:103DC000FFF7C0FF24490968086A80471949096854
:103DD00088688047082400E00824154909680C72A7
:103DE000FFF744FF10BD10B511480068047A032C9A
:103DF00001D0052C05D1FFF7AAFC0D480068047A14
:103E00000EE0072C05D10B490968C86880470824D3
:103E100006E0022C01D0042C01D1082400E0082483
:103E2000034909680C72FFF721FF10BD70470000BD
:103E3000680000206C000020600000207800002056
:103E4000DC0000207A000020505C00400060004050
:103E5000D8000020005000407400002010B500245D
:103E600073E147F6FF70EA490860EA48008800F00D
:103E70000F00E94908700846007800287ED1E44820
:103E80004438006800F44050E4490880E048443871
:103E9000006800F03000E2490880DD4944390968D3
:103EA0004BF68F7201EA020080F40050D849443981
:103EB0000860096848F6BF7201EA020080F020003D
:103EC000D34944390860D348008800F01000002826
:103ED00038D10846006848F60F710840CC4944398B
:103EE0000860FFF74FFFCA49443909684BF68F72E3
:103EF00001EA0200C949098801F4805109B180F43E
:103F00008050C649098801F4005109B180F400507D
:103F1000BF4944390860096848F6BF7201EA0200E7
:103F2000BF49097801F0100109B180F01000BC49C7
:103F3000097801F0200109B180F02000B44944392A
:103F4000086010BDB2484438006884B204F08000B4
:103F5000D8B3AF484438006848F60F710840AC4900
:103F600044390860FFF70EFFA949443909684BF648
:103F70008F7201EA0200A949098800E0A6E001F475
:103F8000805109B180F48050A449098801F400519E
:103F900009B180F400509E4944390860096848F628
:103FA000BF7201EA02009E49097801F0100109B1CF
:103FB00080F010009A49097801F0200109B180F0E1
:103FC0002000934944390860BBE7FFE704F4006030
:103FD000D8B38F4844380068C0F30E0048F68F719C
:103FE00008408B4944390860FFF75BFE8849443933
:103FF00009684BF68F7201EA02008849098801F4CA
:10400000805109B180F480508449098801F400513D
:1040100009B180F400507E4944390860096848F6C7
:10402000BF7201EA02007E49097801F0100109B16E
:1040300080F010007A49097801F0200109B180F080
:1040400020007349443908607BE7FFE704F400402F
:1040500000287AD06E4844380068C0F30E0048F655
:104060008F7108406A4944390860FFF7BCFE68490F
:10407000443909684BF68F7201EA020067490988E2
:1040800001F4805109B180F480506449098801F439
:10409000005109B180F400505D4944390860096855
:1040A00048F6BF7201EA02005D49097801F010018B
:1040B00009B180F010005A49097801F0200109B1D6
:1040C00080F020005249443908603AE752480078AD
:1040D000544901EB8000D0F8000C84B204F4004095
:1040E000C0B14D48007801EB8000D0F8000CC0F35F
:1040F0000E0048F68F71084047490978494A02EB9B
:104100008101C1F8000C44490978491E464A52F819
:104110002100804704F08000B8B13F480078414951
:1041200001EB8000D0F8000C48F60F7108403A49C6
:1041300009783C4A02EB8101C1F8000C3649097844
:10414000491E3A4A52F8210080473148006880B23F
:104150003049088000F4004000287FF482AE00BFA0
:10416000EFE610B5002449E047F6FF7028490860E3
:104170002848008800F00F0027490870084600789A
:10418000284901EB8000D0F8000C84B204F4004010
:10419000C8B12148007801EB8000D0F8000CC0F3D2
:1041A0000E0048F68F7108401B4909781D4A02EB42
:1041B0008101C1F8000C18490978491E1A4A52F8C1
:1041C000210080471AE004F08000B8B1124800785E
:1041D000144901EB8000D0F8000C48F60F7108403C
:1041E0000D4909780F4A02EB8101C1F8000C0A4918
:1041F0000978491E0D4A52F821008047044800689A
:1042000080B20449088000F400400028ACD110BD01
:10421000445C0040980000206400002078000020EA
:104220007A00002000500040B80000209C000020D0
:10423000F0B5144604F1010C4FEA6C07DFF848C0F2
:104240000CEB41033D460AE00678401C90F800C0A4
:1042500046EA0C2223F8022B9B1C401C6D1E002DED
:10426000F2D1F0BDF0B5561C7510074E06EB4104B7
:104270002B4605E034F8047B20F8017B401C5B1ED4
:10428000002BF7D1F0BD000000600040F749086046
:104290007047F648006880B27047F449091D08600D
:1042A0007047F248001D006880B27047EF48083040
:1042B000006880B27047ED490C3108607047EB48E8
:1042C0000C30006880B270474FF6F8710140E74A41
:1042D000103211607047E5481030006880B27047B6
:1042E000E34B03EB8002C2F8001C70470146E04A32
:1042F00002EB8100D0F8000C80B2704710B5DC4BA7
:1043000003EB8002D2F8002C48F68F131A400A43C0
:10431000D74C04EB8003C3F8002C10BD0146D44AEF
:1043200002EB8100D0F8000C00F4C060704710B5BB
:10433000CF4C04EB8003D3F8003C48F6BF7403EA8B
:10434000040201F010030BB182F0100201F020030F
:104350000BB182F02002C64C04EB8003C3F8002CA2
:1043600010BD10B5C24C04EB8003D3F8003C4BF6F3
:104370008F7403EA040201F480530BB182F480527B
:1043800001F400530BB182F40052B94C04EB8003EA
:10439000C3F8002C10BD30B503460C461846FFF795
:1043A000A5FF0546012C07D125F48050B04A02EB49
:1043B0008301C1F8000C08E0022C06D125F01000A2
:1043C000AB4A02EB8301C1F8000C30BD0146A84A9C
:1043D00002EB8100D0F8000C00F03000704701467D
:1043E000A34A02EB8100D0F8000C00F44050704763
:1043F0009F4B03EB8002D2F8002C48F6BF7302EA11
:10440000030181F0100181F02001994B03EB800240
:10441000C2F8001C7047964B03EB8002D2F8002CC8
:104420004BF68F7302EA030181F4805181F400514D
:104430008F4B03EB8002C2F8001C70478C4A02EBE2
:104440008001D1F8001C41F4807148F68F72114050
:10445000874B03EB8002C2F8001C7047844A02EBD2
:104460008001D1F8001C48F68F621140804B03EBAD
:104470008002C2F8001C70477D4A02EB8001D1F82F
:10448000001C48F68F621140794B03EB8002C2F8A2
:10449000001C7047764A02EB8001D1F8001C41F401
:1044A000807148F68F721140714B03EB8002C2F8A5
:1044B000001C70476E4A02EB8001D1F8001C41F4E9
:1044C000807148F68F721140694B03EB8002C2F88D
:1044D000001C7047664A02EB8001D1F8001C48F6C8
:1044E0008F621140624B03EB8002C2F8001C7047E0
:1044F00001465F4A02EB8100D0F8000C00F030006A
:10450000102801D1012070470020FCE70146584ADD
:1045100002EB8100D0F8000C00F44050B0F5805F51
:1045200001D1012070470020FCE7514A02EB8001D5
:10453000D1F8001CC1F30E0148F68F7211404C4BAC
:1045400003EB8002C2F8001C7047494A02EB80016D
:10455000D1F8001C48F60F721140454B03EB800266
:10456000C2F8001C7047424A02EB8001D1F8001CDF
:1045700048F68F72114041F480413D4B03EB8002BD
:10458000C2F8001C70473A4A02EB8001D1F8001CC7
:1045900048F68F72114041F04001354B03EB800229
:1045A000C2F8001C7047324A02EB8001D1F8001CAF
:1045B00001F4804169B102EB8001D1F8001C48F69A
:1045C0008F72114041F48041294B03EB8002C2F805
:1045D000001C7047264A02EB8001D1F8001C01F054
:1045E000400169B102EB8001D1F8001C48F68F72DE
:1045F000114041F040011E4B03EB8002C2F8001C49
:10460000704710B51A4B03EB8002D2F8002C48F625
:104610008F731A400A43164C04EB8003C3F8002C36
:1046200010BD0146124A02EB8100D0F8000C00F0E8
:104630000F00704710B54A1052000C4B10331B6826
:104640009BB203EBC0030B4C44F8132010BD10B514
:104650004A105300054A1032126892B202EBC002AF
:10466000121D044C44F8123010BD0000405C0040A4
:1046700000500040006000400146EF48006880B2F2
:1046800000EBC100ED4A32F8100080B270470146DD
:10469000E948006880B200EBC100001DE74A32F82B
:1046A000100080B27047E44A126892B202EBC00276
:1046B000921CE24B43F81210704702463E290BDD74
:1046C000481101F01F030BB9431E98B24FF4004389
:1046D00043EA8023136007E0481001F001030BB1A7
:1046E000431C98B283021360704710B50246D2484B
:1046F000006880B200EBC200801DD04C04EB400388
:104700003E290BDD481101F01F040CB9441EA0B274
:104710004FF4004444EA80241C6007E0481001F094
:1047200001040CB1441CA0B284021C6010BD0146FF
:10473000C148006880B200EBC100801CBF4A32F85B
:104740001000C0F3090070470146BB48006880B202
:1047500000EBC100801DB94A32F81000C0F3090017
:10476000704730B54B105B00B34C2468A4B204EB27
:10477000C004B24D45F8143053105C00AE4B1B68BA
:104780009BB203EBC0031B1D45F8134030BD10B5B1
:104790004A105200A84B1B689BB203EBC003A74C06
:1047A00044F8132010BD10B54A105300A24A1268F5
:1047B00092B202EBC002121DA04C44F8123010BDA0
:1047C00001469D48006880B200EBC1009B4A32F868
:1047D000100080B2704701469748006880B200EB35
:1047E000C100001D954A32F8100080B2704730B504
:1047F0000B46012B1FD19049096889B201EBC0011A
:10480000891C8E4D05EB41043E2A0BDD511102F04F
:104810001F050DB94D1EA9B24FF4004545EA81258B
:10482000256007E0511002F001050DB14D1CA9B241
:104830008D0225600AE0022B08D17F49096889B200
:1048400001EBC001891C7D4C44F81120012B1FD1C4
:104850007949096889B201EBC001891D774D05EBE3
:1048600041043E2A0BDD511102F01F050DB94D1E0A
:10487000A9B24FF4004545EA8125256007E05110B3
:1048800002F001050DB14D1CA9B28D0225600AE0B0
:10489000022B08D16849096889B201EBC001891D62
:1048A000664C44F8112030BD30B5034601291FD1B4
:1048B0006148006880B200EBC300801C5F4D05EBCF
:1048C00040043E2A0BDD501102F01F050DB9451EB4
:1048D000A8B24FF4004545EA8025256007E0501056
:1048E00002F001050DB1451CA8B2850225600AE061
:1048F000022908D15048006880B200EBC300801C38
:104900004E4C44F8102030BD30B5034601291FD16C
:104910004948006880B200EBC300801D474D05EB9D
:1049200040043E2A0BDD501102F01F050DB9451E53
:10493000A8B24FF4004545EA8025256007E05010F5
:1049400002F001050DB1451CA8B2850225600AE000
:10495000022908D13848006880B200EBC300801DEE
:10496000364C44F8102030BD01463348006880B210
:1049700000EBC100801C314A32F81000C0F309007E
:10498000704701462C48006880B200EBC100801DD2
:104990002A4A32F81000C0F3090070470146264841
:1049A000006880B200EBC100801D244A32F810007C
:1049B00000F47C4008B1012070471F48006880B2B5
:1049C00000EBC100801C1D4A32F81000C0F3090042
:1049D00008B10220F0E70020EEE710B501290FD161
:1049E000174B03EB8002D2F8002C48F68F731A4065
:1049F00042F04002124C04EB8003C3F8002C10E09C
:104A000002290ED10E4B03EB8002D2F8002C48F69F
:104A10008F731A4042F48042094C04EB8003C3F8C0
:104A2000002C10BD024641EA022070470146CAB27E
:104A30000B1243EA02207047505C004000600040C7
:104A40000050004010B50020FDF74EF80121C805C8
:104A5000FDF7F7F810BD03203C49086070473C485B
:104A6000817A19B10521394A116002E00121374AE2
:104A7000116070470EB54FF4A060FCF74BFD4FF48A
:104A80008020FDF7BEFB4FF48020009008208DF8B9
:104A9000050001208DF806006846FDF73BFB142059
:104AA0008DF8080001208DF8090000208DF80A001B
:104AB00001208DF80B0002A8FCF731FD2A208DF8AB
:104AC000080000208DF8090002A8FCF728FD0EBDA3
:104AD0002DE9F84304460D4616461F460020009077
:104AE0008DF800408DF801508DF802608DF803704C
:104AF0000120FFF7C1FD8046042241466846FFF7CA
:104B000097FB0120FFF774FCBDE8F88310B5114B4B
:104B100018681B1D19681B1D1A68A8B10E4CA070DF
:104B2000030A2371030CA371030E2372A1720B0AF3
:104B300023730B0CA3730B0E2374A274130A237537
:104B4000130CA375130E237610BD00007001002016
:104B500098020020E8F7FF1F7C00002010B53748BE
:104B60000068374908800846008800F480603549AD
:104B70000988084030B14FF6FF30304908603249AB
:104B8000486880472E48008800F400502D49098865
:104B9000084018B14DF6FF70284908602848008881
:104BA00000F4805027490988084030B14EF6FF7064
:104BB00022490860002000F0ABF92148008800F489
:104BC000006020490988084060B12048007810B191
:104BD00000F07EF902E0022000F09AF94FF2FF7037
:104BE000164908601648008800F4007015490988C5
:104BF000084040B14FF6FF50104908601448007853
:104C0000401C134908700E48008800F480700D495C
:104C10000988084030B14FF6FF6008490860072056
:104C200000F076F90648008800F40040054909883C
:104C3000084008B1FFF712F910BD0000445C0040C5
:104C40009800002072000020DC0000207401002089
:104C50009A00002010B5FFF759FF00207E4909682F
:104C6000887200F013F900207C4908604FF43F403F
:104C70007B490880084600887849091F08600020A1
:104C80007849086010BD10B5002073490968887222
:104C900071490968C8727448C0796F4909684872D7
:104CA0000020FFF711FB4FF400710020FFF726FBF7
:104CB00010210020FFF73BFB18210020FFF7C7FC65
:104CC00058210020FFF7B6FC0020FFF7D5FB67480E
:104CD00090F82C100020FFF708FD0020FFF79BFB49
:104CE0004FF4C0610120FFF709FB4FF480710120F0
:104CF000FFF7A0FC04210120FFF7D5FC00210120D3
:104D0000FFF72FFB20210120FFF711FB0120554960
:104D100008600020FFF716F810BD5548817A11B1E0
:104D20000521504A1160704704204E4908607047C1
:104D300070477047014629B90120474A126810821E
:104D4000002070474B48FCE710B504464A4920460E
:104D5000FEF7DEFC10BD10B5044648492046FEF7BC
:104D6000D7FC10BD70B504460025062C1AD13A4870
:104D70000068007800F07F00012813D136480068F1
:104D8000407978B9344800688078222802D1AFF29F
:104D9000390512E030480068807821280DD1AFF243
:104DA00057050AE02C480068007800F07F002128B1
:104DB00003D1032C01D1AFF283050DB9022070BDE0
:104DC0002548006885610021234800684182002051
:104DD000A8470020F3E720480068C1782548016013
:104DE0000020704700B502461B480068007800F0BC
:104DF0007F00212804D10B2A02D1FFF7ECFF00BD70
:104E00000220FCE710B504461D492046FEF780FC51
:104E100010BD10B504461B492046FEF779FC10BDB5
:104E200070B505460C480068C478042C01DD0020EC
:104E300070BD154800EBC4012846FEF769FCF7E792
:104E40000246002901DD02207047002A01DD022010
:104E5000FAE70020F8E7000068000020445C00400A
:104E60007200002070010020268F0008DC00002066
:104E700098020020D40000204801002040010020BA
:104E800030010020380100205001002001214A4853
:104E900001600020494A108010460088464A106090
:104EA0000020121D10604FF4E050444A108010465C
:104EB0000088414A10600020704701203E49086088
:104EC0000020091D08600320091F086000207047AA
:104ED00010B53948006884B244F0080436480460CC
:104EE000006884B244F0040433480460FFF7B3FD63
:104EF00010BD10B53048006884B224F004042E4878
:104F00000460FFF7ACFD4FF43F402B49086010BD33
:104F100070B50546072D01D029480570284800784E
:104F2000082841D2DFE800F0040A1016212E414281
:104F3000FFF7DFFF0620224908703BE0FFF7D9FFAB
:104F400004201F49087035E002201D4948700320E5
:104F500008702FE01A484078401E194948700846EA
:104F6000407808B90420087024E01348006884B22F
:104F700044F01004104804600520114908700A200C
:104F8000487017E00E484078401E0D4948700846AA
:104F9000407840B90848006884B224F010040648FC
:104FA00004600620087005E000BF00BF0620044929
:104FB000087000BF00BF70BD405C00407200002060
:104FC0007501002010B5C8234FF48062F74940F600
:104FD000F63002F0F9F810BD10B586B00446F4A022
:104FE00000680390F3A000680290F3A000680190AD
:104FF000F2A00068009004F0030003A9085C8DF89B
:10500000140003A8C4F3C101405C8DF8150003A887
:10501000C4F38111405C8DF8160004F0030002A96E
:10502000085C8DF8100002A8C4F3C101405C8DF843
:10503000110002A8C4F38111405C8DF8120005AA8A
:10504000032140F2264001F0E0FF18B14FF0FF309D
:1050500006B010BD04AA032140F22A4001F0D5FF9A
:1050600010B14FF0FF30F3E70198059000980490DD
:1050700004F0040058B19DF8140040F001008DF8D0
:1050800014009DF8100040F001008DF8100004F0AD
:10509000200058B19DF8150040F001008DF8150072
:1050A0009DF8110040F001008DF8110004F48070AB
:1050B00058B19DF8160040F001008DF816009DF8DB
:1050C000120040F001008DF8120005AA03214FF4F0
:1050D000886001F09AFF10B14FF0FF30B8E704AAE2
:1050E000032140F2314001F090FF10B14FF0FF304A
:1050F000AEE7B34804810020AAE71FB50446B048D4
:10510000007A00F0030054F820000190AC48007AC7
:1051100000F0040010B1019840420190A848007AC4
:10512000C0F3C10054F820000290A548007A00F0B6
:10513000200010B1029840420290A148007AC0F3CA
:10514000811054F8200003909D48008900F480707D
:1051500010B10398404203909A49019880FB0101E5
:10516000800F40EA810001909649029880FB01106F
:10517000820042EA917002909249039880FB0110EC
:10518000820042EA917003900198000E8DF80000B1
:105190000198000C8DF801000198000A8DF80200BA
:1051A0000198C0B28DF803006A4604214FF4747070
:1051B00001F02BFF18B14FF0FF3004B010BD029882
:1051C000000E8DF800000298000C8DF80100029886
:1051D000000A8DF802000298C0B28DF803006A46FA
:1051E00004214FF4757001F010FF10B14FF0FF3043
:1051F000E3E70398000E8DF800000398000C8DF88B
:1052000001000398000A8DF802000398C0B28DF8DF
:1052100003006A4604214FF4767001F0F6FECCE7F5
:1052200070B588B0064601A801F0FBFCBDF804008B
:105230000021C90341EA5045C4036148007A00F0E7
:10524000030056F8200005905D48007A00F0040045
:1052500010B10598404205905948007AC0F3C1004A
:1052600056F8200006905648007A00F0200010B151
:105270000698404206905248007AC0F3811056F8D2
:10528000200007904E48008900F4807010B1079804
:10529000404207900598C117A0FB042301FB04318D
:1052A00000FB0510810041EA927005900698C11735
:1052B000A0FB042301FB043100FB0510810041EA3F
:1052C000927006900798C117A0FB042301FB0431DC
:1052D00000FB0510810041EA927007900598000ECE
:1052E0008DF808000598000C8DF809000598000A53
:1052F0008DF80A000598C0B28DF80B000698000ED4
:105300008DF80C000698000C8DF80D000698000A28
:105310008DF80E000698C0B28DF80F000798000EA9
:105320008DF810000798000C8DF811000798000AFE
:105330008DF812000798C0B28DF8130002AA0C2154
:105340004FF4257001F061FE08B070BD30B585B036
:1053500004461DA207CA02AB07C3C82C03DD4FF0E9
:10536000FF3005B030BDC82090FBF4F0401E85B280
:10537000280A8DF80000E8B28DF801006A46022183
:1053800040F2162001F041FE10B14FF0FF30E8E787
:1053900002AA0C2140F6C12001F037FE10B14FF0F7
:1053A000FF30DEE7064884810020DAE7D28F00086C
:1053B0004CCD6C000CC92C00365676002646660093
:1053C000B402002009E3CA02FEF2ABC4AAF1DFDF97
:1053D000BBAFDFDF0146FC488089088000207047B2
:1053E0002DE9FC4706460F4606F0070010B1B7F559
:1053F000C86F03DD4FF0FF30BDE8FC87384603F08F
:10540000C9FB8146F14903F07BFA8046684601F00A
:1054100007F99DF80000022806D0042816D00828B5
:1054200026D0102848D135E04FF08D41404603F09A
:10543000F9FB814603F076FB84B2E549404603F070
:10544000F1FB814603F06EFB85B238E04FF08C41F2
:10545000404603F0E7FB814603F064FB84B2DD497C
:10546000404603F0DFFB814603F05CFB85B226E09B
:105470004FF08B41404603F0D5FB814603F052FBD1
:1054800084B2D549404603F0CDFB814603F04AFB88
:1054900085B214E04FF08A41404603F0C3FB8146D9
:1054A00003F040FB84B2CD49404603F0BBFB81468C
:1054B00003F038FB85B202E04FF0FF309CE700BFFD
:1054C00020128DF80400E0B28DF8050028128DF846
:1054D0000600E8B28DF8070006F00100A0B101AAAD
:1054E00002214FF4EA7001F090FD10B14FF0FF304F
:1054F00082E70DF1060202214FF4927001F085FD62
:1055000010B14FF0FF3077E706F00200A0B101AA1A
:1055100002214FF4EC7001F078FD10B14FF0FF3034
:105520006AE70DF1060202214FF4947001F06DFD5F
:1055300010B14FF0FF305FE706F00400A0B101AA00
:1055400002214FF4EE7001F060FD10B14FF0FF301A
:1055500052E70DF1060202214FF4967001F055FD5D
:1055600010B14FF0FF3047E7002045E738B504465B
:105570000020009004F0010020B19DF8000040F0F0
:105580003000009004F0020020B19DF8000040F0CF
:105590000C00009004F0040020B19DF8000040F0E1
:1055A000030000906A4601214FF4A47001F02DFD24
:1055B00038BD38B50446012C01DA012402E0042C80
:1055C00000DD0424601EC0B200906A46012140F252
:1055D0004F1001F01AFD38BD38B50446052094FB84
:1055E000F0F085B228128DF80000E8B28DF80100C5
:1055F0006A4602214FF4EF7001F007FD38BD38B55F
:105600000446052094FBF0F085B228128DF80000C6
:10561000E8B28DF801006A4602214FF4ED7001F006
:10562000F4FC38BDF8B505460E464FF47A7095FB8C
:10563000F0F000FB06F4200E8DF80000200C8DF831
:105640000100200A8DF80200E0B28DF803006A46DE
:1056500004214FF4AE7001F0D8FCF8BD38B5044613
:10566000052094FBF0F084B220128DF80000E0B227
:105670008DF801006A4602214FF4AD7001F0C5FCBF
:1056800038BD38B50446052094FBF0F084B22012F2
:105690008DF80000E0B28DF801006A4602214FF457
:1056A000AC7001F0B2FC38BD38B5044614B94FF007
:1056B000FF3038BD6A4604214FF4587001F0E2FC17
:1056C00010B14FF0FF30F4E79DF8000000069DF8A0
:1056D000011040EA01409DF8021040EA01209DF8C7
:1056E0000310084320600020E3E738B50446200E8D
:1056F0008DF80000200C8DF80100200A8DF80200C2
:10570000E0B28DF803006A4604214FF4587001F0AE
:105710007CFC38BD38B5044614B94FF0FF3038BDB5
:105720006A4604214FF4717001F0ACFC10B14FF0E7
:10573000FF30F4E79DF8000000069DF8011040EAF4
:1057400001409DF8021040EA01209DF80310084333
:1057500000EB8000800020600020E0E738B50446C0
:105760001420B4FBF0F4200E8DF80000200C8DF80E
:105770000100200A8DF80200E0B28DF803006A46AD
:1057800004214FF4717001F040FC38BD38B5044677
:1057900064B120208DF8000028208DF80100302011
:1057A0008DF8020038208DF8030004E0A3220421C4
:1057B000684602F083FA6A46042140F69E2001F012
:1057C00024FC00F0EBFB38BDB4020020000048438D
:1057D000000040460000C045000040450000C044B5
:1057E00038B5044664B1C0208DF80000C2208DF8A1
:1057F0000100C4208DF80200C6208DF8030004E0EB
:105800008B220421684602F059FA6A46042140F6C8
:10581000982001F0FAFB00F0C1FB38BD3EB504460C
:105820006CB1FDA1D1E900208968CDE90020029189
:105830006A4609214FF4976001F0E7FB3EBDF9A2EB
:10584000D2E900109268CDE9010200916A4609216F
:105850004FF4976001F0D9FBF0E73EB50446022013
:105860008DF80000CA208DF80100E3208DF80200B9
:1058700009208DF803006A460421682001F0C5FB69
:10588000A3208DF8000004F0400048B1C0208DF83E
:105890000100C8208DF80200C2208DF8030006E048
:1058A000A3208DF801008DF802008DF8030004F4A8
:1058B000C07048B1C4208DF80400CC208DF80500DC
:1058C000C6208DF8060006E0A3208DF804008DF8B0
:1058D00005008DF80600A3208DF807008DF808005C
:1058E0008DF809006A460A2140F6A72001F08DFBD9
:1058F00004F0030018B120208DF8000002E0D82049
:105900008DF800006A46012140F6B62001F07DFBCB
:1059100004F0200018B10120FFF780FF02E0002012
:10592000FFF77CFF04F4C07008B304F4807060B12A
:10593000B2208DF800008B208DF80100B6208DF884
:1059400002009B208DF803000BE0B0208DF80000D2
:1059500080208DF80100B4208DF8020090208DF891
:1059600003006A46042140F6A22001F04EFB04F039
:10597000010020B3F8208DF800006A4601214FF4A1
:105980000B6001F042FBFA210720FFF729FD0720F9
:10599000FFF7ECFD0120FFF70CFE6420FFF71CFE73
:1059A0004FF4FA70FFF72BFEC821A148FFF73AFE2B
:1059B0002820FFF753FE0A20FFF763FE08E0D820F7
:1059C0008DF800006A4601214FF40B6001F01DFBC9
:1059D00004F0020018B1D9208DF8000002E0D820B0
:1059E0008DF800006A46012140F23D7001F00DFB88
:1059F00004F0040018B10120FFF7F2FE02E00020DD
:105A0000FFF7EEFE04F0100018B10120FFF7BEFE14
:105A100002E00020FFF7BAFE44F008008549488103
:105A200000F0BCFA00208349887304F0400018B1EC
:105A30000846807B801D887304F4C07020B17D48C7
:105A4000807B801D7B49887304F0140020B1794865
:105A5000807B10307749887304F0030020B17548CB
:105A6000807B001D7349887300203EBD014671484C
:105A700040890880002070472DE9F0410446E07815
:105A800000F0C006E07800F03F05607800F001000B
:105A900098B1EF102846E91705EB5171C910A5EB35
:105AA000C101491C01F0FF086248006820B161484B
:105AB000414602683846904700BF607800F0080011
:105AC00030B15C48406818B1B0115A4A51688847F3
:105AD0000020BDE8F08110B586B0044656A207CA82
